{
  "_format": "hh-sol-artifact-1",
  "contractName": "Assessment",
  "sourceName": "contracts/Assessment.sol",
  "abi": [
    {
      "inputs": [
        {
          "internalType": "uint256",
          "name": "initBalance",
          "type": "uint256"
        }
      ],
      "stateMutability": "payable",
      "type": "constructor"
    },
    {
      "inputs": [
        {
          "internalType": "uint256",
          "name": "balance",
          "type": "uint256"
        },
        {
          "internalType": "uint256",
          "name": "withdrawAmount",
          "type": "uint256"
        }
      ],
      "name": "InsufficientBalance",
      "type": "error"
    },
    {
      "anonymous": false,
      "inputs": [
        {
          "indexed": false,
          "internalType": "uint256",
          "name": "amount",
          "type": "uint256"
        }
      ],
      "name": "Deposit",
      "type": "event"
    },
    {
      "anonymous": false,
      "inputs": [
        {
          "indexed": false,
          "internalType": "uint256",
          "name": "amount",
          "type": "uint256"
        }
      ],
      "name": "Withdraw",
      "type": "event"
    },
    {
      "inputs": [],
      "name": "balance",
      "outputs": [
        {
          "internalType": "uint256",
          "name": "",
          "type": "uint256"
        }
      ],
      "stateMutability": "view",
      "type": "function"
    },
    {
      "inputs": [
        {
          "internalType": "uint256",
          "name": "_amount",
          "type": "uint256"
        }
      ],
      "name": "deposit",
      "outputs": [],
      "stateMutability": "payable",
      "type": "function"
    },
    {
      "inputs": [],
      "name": "getBalance",
      "outputs": [
        {
          "internalType": "uint256",
          "name": "",
          "type": "uint256"
        }
      ],
      "stateMutability": "view",
      "type": "function"
    },
    {
      "inputs": [],
      "name": "getLastTransactionTime",
      "outputs": [
        {
          "internalType": "uint256",
          "name": "",
          "type": "uint256"
        }
      ],
      "stateMutability": "view",
      "type": "function"
    },
    {
      "inputs": [],
      "name": "lastTransactionTime",
      "outputs": [
        {
          "internalType": "uint256",
          "name": "",
          "type": "uint256"
        }
      ],
      "stateMutability": "view",
      "type": "function"
    },
    {
      "inputs": [],
      "name": "owner",
      "outputs": [
        {
          "internalType": "address payable",
          "name": "",
          "type": "address"
        }
      ],
      "stateMutability": "view",
      "type": "function"
    },
    {
      "inputs": [
        {
          "internalType": "uint256",
          "name": "_withdrawAmount",
          "type": "uint256"
        }
      ],
      "name": "withdraw",
      "outputs": [],
      "stateMutability": "nonpayable",
      "type": "function"
    }
  ],
  "bytecode": "0x6080604052604051610767380380610767833981810160405281019061002591906100b4565b336000806101000a81548173ffffffffffffffffffffffffffffffffffffffff021916908373ffffffffffffffffffffffffffffffffffffffff1602179055508060018190555042600281905550506100e1565b600080fd5b6000819050919050565b6100918161007e565b811461009c57600080fd5b50565b6000815190506100ae81610088565b92915050565b6000602082840312156100ca576100c9610079565b5b60006100d88482850161009f565b91505092915050565b610677806100f06000396000f3fe6080604052600436106100705760003560e01c80638da5cb5b1161004e5780638da5cb5b146100f4578063b69ef8a81461011f578063b6b55f251461014a578063e26432431461016657610070565b806312065fe0146100755780632e1a7d4d146100a05780634577942c146100c9575b600080fd5b34801561008157600080fd5b5061008a610191565b6040516100979190610409565b60405180910390f35b3480156100ac57600080fd5b506100c760048036038101906100c29190610455565b61019b565b005b3480156100d557600080fd5b506100de6102ce565b6040516100eb9190610409565b60405180910390f35b34801561010057600080fd5b506101096102d4565b60405161011691906104c3565b60405180910390f35b34801561012b57600080fd5b506101346102f8565b6040516101419190610409565b60405180910390f35b610164600480360381019061015f9190610455565b6102fe565b005b34801561017257600080fd5b5061017b6103e6565b6040516101889190610409565b60405180910390f35b6000600154905090565b60008054906101000a900473ffffffffffffffffffffffffffffffffffffffff1673ffffffffffffffffffffffffffffffffffffffff163373ffffffffffffffffffffffffffffffffffffffff1614610229576040517f08c379a000000000000000000000000000000000000000000000000000000000815260040161022090610561565b60405180910390fd5b80600154101561027457600154816040517fcf47918100000000000000000000000000000000000000000000000000000000815260040161026b929190610581565b60405180910390fd5b806001600082825461028691906105d9565b92505081905550426002819055507f5b6b431d4476a211bb7d41c20d1aab9ae2321deee0d20be3d9fc9b1093fa6e3d816040516102c39190610409565b60405180910390a150565b60025481565b60008054906101000a900473ffffffffffffffffffffffffffffffffffffffff1681565b60015481565b60008054906101000a900473ffffffffffffffffffffffffffffffffffffffff1673ffffffffffffffffffffffffffffffffffffffff163373ffffffffffffffffffffffffffffffffffffffff161461038c576040517f08c379a000000000000000000000000000000000000000000000000000000000815260040161038390610561565b60405180910390fd5b806001600082825461039e919061060d565b92505081905550426002819055507f4d6ce1e535dbade1c23defba91e23b8f791ce5edc0cc320257a2b364e4e38426816040516103db9190610409565b60405180910390a150565b6000600254905090565b6000819050919050565b610403816103f0565b82525050565b600060208201905061041e60008301846103fa565b92915050565b600080fd5b610432816103f0565b811461043d57600080fd5b50565b60008135905061044f81610429565b92915050565b60006020828403121561046b5761046a610424565b5b600061047984828501610440565b91505092915050565b600073ffffffffffffffffffffffffffffffffffffffff82169050919050565b60006104ad82610482565b9050919050565b6104bd816104a2565b82525050565b60006020820190506104d860008301846104b4565b92915050565b600082825260208201905092915050565b7f596f7520617265206e6f7420746865206f776e6572206f66207468697320616360008201527f636f756e74000000000000000000000000000000000000000000000000000000602082015250565b600061054b6025836104de565b9150610556826104ef565b604082019050919050565b6000602082019050818103600083015261057a8161053e565b9050919050565b600060408201905061059660008301856103fa565b6105a360208301846103fa565b9392505050565b7f4e487b7100000000000000000000000000000000000000000000000000000000600052601160045260246000fd5b60006105e4826103f0565b91506105ef836103f0565b9250828203905081811115610607576106066105aa565b5b92915050565b6000610618826103f0565b9150610623836103f0565b925082820190508082111561063b5761063a6105aa565b5b9291505056fea264697066735822122047f5673a1a943e2e3e63531a24cf62b81bb7707e3160270c02fb0cf0933446a264736f6c63430008110033",
  "linkReferences": {},
  "deployedLinkReferences": {}
}